:020000040000FA
:04000000C6EF3FF018
:107F84001200700ED36E12000001D8EF3FF0C3EC64
:107F94003FF0D0EC3FF0C2EC3FF01200E00E7C6EFC
:107FA400F00E7D6E000E7B6E92981200C9EC3FF0CD
:107FB400340E016EF20EE82EFED7012EFCD77B2A7A
:107FC4007B04016E1F0E0164EAEF3FF0ECEF3FF01B
:107FD400EEEF3FF0000E7B6E8088030E026E080EFB
:107FE400016E770EE82EFED7012EFCD7022EFAD7AB
:0C7FF40000F08098DAEF3FF000EF00F0A2
:020000040020DA
:08000000FFFFFFFFFFFFFFFF00
:020000040030CA
:0E00000000285F3CFFD385FF0FC00FE00F40CC
:00000001FF
